:100000000C9471000C9499000C9499000C94990034
:100010000C9499000C9499000C9499000C949900FC
:100020000C9499000C9499000C9499000C949900EC
:100030000C9499000C9499000C9499000C949900DC
:100040000C9451030C9499000C9499000C94990011
:100050000C9499000C9499000C9499000C949900BC
:100060000C9499000C94990005A84CCDB2D44EB9CB
:100070003836A9020C50B9918688083CA6AAAA2A4B
:10008000BE000000803F0000000023002600290081
:100090000000000800020100000304070000000047
:1000A0000000000000000000250028002B000000D8
:1000B0000000240027002A000404040404040404AB
:1000C0000202020202020303030303030102040803
:1000D00010204080010204081020010204081020B2
:1000E000E10511241FBECFEFD8E0DEBFCDBF11E088
:1000F000A0E0B1E0E8E4F2E102C005900D92A4387E
:10010000B107D9F723E0A4E8B1E001C01D92AD3AF0
:10011000B207E1F710E0C1E7D0E004C02197FE018B
:100120000E941C09C037D107C9F70E949B030C9499
:1001300022090C94000090E0FC01E453FF4F24914D
:1001400088549F4FFC018491882399F090E0880F98
:10015000991FFC01E255FF4FA591B491FC01EC55AC
:10016000FF4F859194918FB7F894EC91E22BEC932B
:100170008FBF08958230910538F0880F991F880F3E
:10018000991F05970197F1F70895AF92BF92CF920B
:10019000DF92EF92FF920F931F93CF93DF936C0147
:1001A0007B018B01040F151FEB015E01AE18BF0828
:1001B000C017D10759F06991D601ED91FC910190DA
:1001C000F081E02DC6010995892B79F7C501DF91F2
:1001D000CF911F910F91FF90EF90DF90CF90BF9044
:1001E000AF900895833081F028F4813099F0823007
:1001F000A9F008958730A9F08830C9F08430B1F4AF
:10020000809180008F7D03C0809180008F778093E4
:100210008000089584B58F7784BD089584B58F7D5F
:10022000FBCF8091B0008F778093B00008958091CC
:10023000B0008F7DF9CFCF93DF93282F30E0F90105
:10024000E057FF4F8491F901E453FF4FD491F90136
:10025000E854FF4FC491CC23A1F081110E94F20019
:10026000EC2FF0E0EE0FFF1FEA57FF4FA591B4917E
:10027000EC91ED2381E090E009F480E0DF91CF91F3
:10028000089580E090E0FACF1F93CF93DF93282F5B
:1002900030E0F901E057FF4F8491F901E453FF4F3B
:1002A000D491F901E854FF4FC491CC23A9F0162F43
:1002B00081110E94F200EC2FF0E0EE0FFF1FEC55D1
:1002C000FF4FA591B4918FB7F894EC91111108C02C
:1002D000D095DE23DC938FBFDF91CF911F910895DE
:1002E000DE2BF8CF8E50806480937C0080917A0062
:1002F000806480937A0080917A0086FDFCCF8091A3
:1003000078009091790008953FB7F8948091890121
:1003100090918A01A0918B01B0918C0126B5A89B88
:1003200005C02F3F19F00196A11DB11D3FBFBA2F87
:10033000A92F982F8827BC01CD01620F711D811D47
:10034000911D42E0660F771F881F991F4A95D1F7CC
:100350000895089590E080E00895FC010190002048
:10036000E9F73197AF01481B590BBC0185E993E0D0
:100370000C94C5008F929F92AF92BF920F931F93E0
:10038000CF93DF93CDB7DEB7A1970FB6F894DEBF5A
:100390000FBECDBF19A2423008F44AE08E010F5DB6
:1003A0001F4F842E912CB12CA12CA50194010E94E9
:1003B000E608E62FB901CA01EA30F4F4E05DD8019D
:1003C000EE938D01232B242B252B79F790E080E0F1
:1003D000109719F0CD010E94AD01A1960FB6F894C7
:1003E000DEBF0FBECDBFDF91CF911F910F91BF90A8
:1003F000AF909F908F900895E95CE1CFCF93DF930A
:10040000EC0160E08E810E94440161E08E810E94D7
:10041000440160E08E810E9444018BE891E00197E5
:10042000F1F7DF91CF910895CF92DF92EF92FF9293
:100430000F931F93CF93DF936C017C0187E0E80E4D
:10044000F11CD0E0C0E0062F10E0B8010C2E02C075
:10045000759567950A94E2F76170F70181917F01C4
:100460000E9444012196C430D10579F7C601DF917D
:10047000CF911F910F91FF90EF90DF90CF900C9450
:10048000FE01CF92DF92EF92FF920F931F93CF93D3
:10049000DF93EC01F62E642F8C810E9444018D8144
:1004A0008F3F19F060E00E9444010F2D10E08F850E
:1004B00084FF25C06E0187E0C80ED11CF12CE12C11
:1004C000B8010E2C02C0759567950A94E2F7617029
:1004D000F60181916F010E944401FFEFEF1AFF0ABC
:1004E00088E0E816F10461F7CE01DF91CF911F910A
:1004F0000F91FF90EF90DF90CF900C94FE01B80128
:1005000084E0759567958A95E1F7CE010E94140203
:100510006F2DCE01DF91CF911F910F91FF90EF9042
:10052000DF90CF900C94140240E0682F85E993E0AF
:100530000C944102CF93DF93823029F49091A4036D
:1005400098609093A4038093A8031092A90380E479
:100550008093AA0380E18093AB0380E58093AC0392
:10056000809199030E949B0080919A038F3F11F024
:100570000E949B0080919B030E949B00C5E9D3E0F1
:100580009E01255933408091A40384FD0AC084E074
:1005900090E02196281739073CF48E810E949B0039
:1005A000EFCF88E090E0F5CF8BE39DE00197F1F786
:1005B00060E0809199030E94440160E080919B0378
:1005C0000E94440180919A038F3F19F060E00E94DD
:1005D00044018091A40384FD39C063E085E993E080
:1005E0000E941402CBE4D6E4CE010197F1F763E058
:1005F00085E993E00E9414022197F1F763E085E911
:1006000093E00E94140283E592E00197F1F762E023
:1006100085E993E00E9414028091A40380620E9405
:10062000940284E08093A5038CE00E94940281E010
:100630000E9494028BE39FE10197F1F782E080939F
:10064000A60386E0DF91CF910C94940280620E9411
:1006500094028BE496E40197F1F78091A403806201
:100660000E94940283E592E00197F1F78091A40340
:1006700080620E949402D0CF9091A803691710F075
:100680006FEF690FE62FF0E0EB56FC4F9489890F6E
:1006900080680C94940241E00E94410281E090E065
:1006A00008951F920F920FB60F9211242F933F932C
:1006B0008F939F93AF93BF93809185019091860113
:1006C000A0918701B09188013091840123E0230F2C
:1006D0002D3758F50196A11DB11D209384018093FB
:1006E000850190938601A0938701B0938801809142
:1006F000890190918A01A0918B01B0918C010196A2
:10070000A11DB11D8093890190938A01A0938B0153
:10071000B0938C01BF91AF919F918F913F912F9199
:100720000F900FBE0F901F90189526E8230F02968A
:10073000A11DB11DD2CF789484B5826084BD84B5EB
:10074000816084BD85B5826085BD85B5816085BDCC
:1007500080916E00816080936E0010928100809184
:10076000810082608093810080918100816080930C
:100770008100809180008160809380008091B10031
:1007800084608093B1008091B00081608093B0005C
:1007900080917A00846080937A0080917A008260F0
:1007A00080937A0080917A00816080937A008091B2
:1007B0007A00806880937A001092C10082E00E94E3
:1007C0009A028CE091E00E94AD0161E080E00E941D
:1007D0003C0385E191E00E94AD018FEF8AB917B823
:1007E00084B982E10E9472010E9484014B015C0184
:1007F00028EBC22E2BE0D22EE12CF12C0E9484019A
:10080000681979098A099B09683E73408105910539
:10081000A8F321E0C21AD108E108F10838EE830EEE
:1008200033E0931EA11CB11CC114D104E104F104F6
:1008300029F760E080E00E943C0383E291E00E949F
:10084000AD0161E080E00E943C0384E391E00E94FE
:10085000AD010FE811E0D0E0C0E0BE010D2E000CAC
:10086000880B990B0E941B0720E030E04FE753E410
:100870000E9471069B01AC010E9400062BED3FE037
:1008800049E450E40E94D0070E943D0820E030E097
:1008900040E053E40E94D0070E94E30660587F4F77
:1008A000F801619371938F012196CF3FD105A9F68D
:1008B0009AE0392ECAE0D0E000E010E082E10E9428
:1008C00072019C01329EC001339E900D11249093C1
:1008D0009403809393038EE00E947201909392039D
:1008E000809391038FE00E94720190939003809314
:1008F0008F0380E10E94720190938E0380938D0399
:1009000082E10E9472017C0190938E0180938D019F
:1009100061E080E00E943C03B701FF0C880B990B5B
:100920000E941B0720E030E04AE754E40E94710671
:100930009B01AC0160E070E080E89FE30E94FF054E
:100940006B017C014B015C01AC019B010E944508DD
:100950008823C9F185E491E00E94AD018EE00E94F8
:100960001B01019709F0C5C060E085E00E943C03CF
:1009700081E591E00E94AD018091910390919203F5
:10098000181619060CF0E5C080919303909194031A
:10099000BE010E94D2086B01F12CFBB8C6010E9477
:1009A000BA00F3943FEFF312F8CFFBB8C6010E94F0
:1009B000BA00FA94F110F9CF0115110509F47ECFB0
:1009C0000E9400007BCF26013701E89477F82FEFD3
:1009D0003FEF4FE75FE7C301B2010E944508811175
:1009E0000DC02FEF3FEF4FE75FE7C301B2010E9459
:1009F0006C0618161CF489E491E0AECF2FEF3FEFA0
:100A00004FE75FE4C701B6010E94CB0718161CF43C
:100A10008DE491E0A1CF2FEF3FEF4FE75FECC701EF
:100A2000B6010E946C0687FDF3CF20E030E0A901FB
:100A3000C701B6010E946C0687FF0CC041E06DE261
:100A400085E993E00E94410246015701B7FAB0944C
:100A5000B7F8B0942AE037ED43EA5BE3C501B4018F
:100A60000E9400064B015C010E94EA066B017C01BA
:100A70000E9419079B01AC01C501B4010E94FF054A
:100A80004B015C014AE0C701B6010E94BA0141E096
:100A90006EE285E993E00E94410220E030E040E20E
:100AA00051E4C501B4010E94D0074B015C010E94D2
:100AB000EA066B01F12CE12C4AE0C701B6010E9465
:100AC000BA01C701B6010E9419079B01AC01C5011B
:100AD000B4010E94FF0520E030E040E251E40E94B2
:100AE000D0070E94EA0690E080E04AE00E94BA0146
:100AF00035CF8FE00E941B01019739F460E085E05B
:100B00000E943C038DE591E035CF80E10E941B01FE
:100B1000019739F460E085E00E943C0389E691E0AA
:100B200029CF8EE00E941B017C018FE00E941B01F7
:100B3000E82AF92A80E10E941B018E299F29892B2E
:100B400009F01ACF60E085E00E943C0385E791E060
:100B500011CF80918F03909190031816190694F489
:100B60008091930390919403BE010E94D2086B017F
:100B7000F12CFBB8C6010E94BA00F3948FEFF81273
:100B8000F8CF1ACF80918D0390918E031816190615
:100B90000CF012CFC0909303D09094038FE8E82E0E
:100BA00081E0F82EF7018081F2E0EF0EF11C8BB9A5
:100BB000C6010E94BA002DE8E21623E0F20691F782
:100BC000FBCEE5E9F3E01382128284E091E09183A9
:100BD000808388E084838FEF858389E086838AE041
:100BE00087838BE080878CE081878DE08287138606
:100BF000148615861686178681E00C949A02505842
:100C0000BB27AA270E9417060C9491070E9483070E
:100C100038F00E948A0720F039F49F3F19F426F437
:100C20000C9480070EF4E095E7FB0C947A07E92F0B
:100C30000E94A20758F3BA17620773078407950743
:100C400020F079F4A6F50C94C4070EF4E0950B2E71
:100C5000BA2FA02D0B01B90190010C01CA01A0010E
:100C60001124FF27591B99F0593F50F4503E68F169
:100C70001A16F040A22F232F342F4427585FF3CFAA
:100C8000469537952795A795F0405395C9F77EF47B
:100C90001F16BA0B620B730B840BBAF09150A1F0C4
:100CA000FF0FBB1F661F771F881FC2F70EC0BA0F4A
:100CB000621F731F841F48F4879577956795B795D2
:100CC000F7959E3F08F0B0CF9395880F08F09927CD
:100CD000EE0F9795879508950E94560708F481E0D6
:100CE00008950E9485060C9491070E948A0758F087
:100CF0000E94830740F029F45F3F29F00C947A07A3
:100D000051110C94C5070C9480070E94A20768F348
:100D10009923B1F3552391F3951B550BBB27AA27B4
:100D200062177307840738F09F5F5F4F220F331FEE
:100D3000441FAA1FA9F335D00E2E3AF0E0E832D0B6
:100D400091505040E695001CCAF72BD0FE2F29D0B9
:100D5000660F771F881FBB1F261737074807AB078B
:100D6000B0E809F0BB0B802DBF01FF2793585F4F00
:100D70003AF09E3F510578F00C947A070C94C50721
:100D80005F3FE4F3983ED4F3869577956795B795E2
:100D9000F7959F5FC9F7880F911D9695879597F9ED
:100DA0000895E1E0660F771F881FBB1F6217730766
:100DB0008407BA0720F0621B730B840BBA0BEE1F7B
:100DC00088F7E09508950E94EA066894B1110C94A2
:100DD000C50708950E94AA0788F09F5798F0B92F79
:100DE0009927B751B0F0E1F0660F771F881F991F60
:100DF0001AF0BA95C9F714C0B13091F00E94C40737
:100E0000B1E008950C94C407672F782F8827B85F46
:100E100039F0B93FCCF3869577956795B395D9F7B7
:100E20003EF490958095709561957F4F8F4F9F4FC1
:100E30000895E89409C097FB3EF4909580957095CD
:100E400061957F4F8F4F9F4F9923A9F0F92F96E916
:100E5000BB279395F695879577956795B795F1118B
:100E6000F8CFFAF4BB0F11F460FF1BC06F5F7F4F28
:100E70008F4F9F4F16C0882311F096E911C077233A
:100E800021F09EE8872F762F05C0662371F096E843
:100E9000862F70E060E02AF09A95660F771F881F12
:100EA000DAF7880F9695879597F90895990F0008B6
:100EB000550FAA0BE0E8FEEF16161706E807F9072C
:100EC000C0F012161306E407F50798F0621B730BC7
:100ED000840B950B39F40A2661F0232B242B252B48
:100EE00021F408950A2609F4A140A6958FEF811DEB
:100EF000811D089597F99F6780E870E060E008958C
:100F00009FEF80EC089500240A9416161706180621
:100F10000906089500240A941216130614060506FD
:100F20000895092E0394000C11F4882352F0BB0F8E
:100F300040F4BF2B11F460FF04C06F5F7F4F8F4FF1
:100F40009F4F089557FD9058440F551F59F05F3F2C
:100F500071F04795880F97FB991F61F09F3F79F0DB
:100F600087950895121613061406551FF2CF46955D
:100F7000F1DF08C0161617061806991FF1CF8695DF
:100F80007105610508940895E894BB2766277727C3
:100F9000CB0197F908950E94560708F48FEF089542
:100FA0000E94E3070C9491070E94830738F00E9487
:100FB0008A0720F0952311F00C947A070C9480078F
:100FC00011240C94C5070E94A20770F3959FC1F3EA
:100FD000950F50E0551F629FF001729FBB27F00DE7
:100FE000B11D639FAA27F00DB11DAA1F649F66273C
:100FF000B00DA11D661F829F2227B00DA11D621F8B
:10100000739FB00DA11D621F839FA00D611D221F44
:10101000749F3327A00D611D231F849F600D211D28
:10102000822F762F6A2F11249F5750409AF0F1F0AB
:1010300088234AF0EE0FFF1FBB1F661F771F881F14
:1010400091505040A9F79E3F510580F00C947A07CB
:101050000C94C5075F3FE4F3983ED4F386957795EB
:101060006795B795F795E7959F5FC1F7FE2B880FBA
:10107000911D9695879597F908959F930E944C0826
:101080000F9007FCEE5F0C9475080E945607880BC2
:10109000990B08950C9480070E94AA07D8F3E8944E
:1010A000E0E0BB279F57F0F02AED3FE049EC06C097
:1010B000EE0FBB0F661F771F881F28F0B23A62073A
:1010C0007307840728F0B25A620B730B840BE39505
:1010D0009A9572F7803830F49A95BB0F661F771F88
:1010E000881FD2F790480C948B08EF93E0FF07C05D
:1010F000A2EA2AED3FE049EC5FEB0E9417060E944E
:1011000091070F90039401FC9058E8E6F0E00C94EE
:1011100097089F3F31F0915020F487957795679518
:10112000B795880F911D9695879597F908959F9388
:101130008F937F936F93FF93EF939B01AC010E947A
:10114000D007EF91FF910E94AB082F913F914F91F3
:101150005F910C94D007DF93CF931F930F93FF926F
:10116000EF92DF927B018C01689406C0DA2EEF01CA
:101170000E94E307FE01E894A591259135914591E0
:101180005591A6F3EF010E941706FE019701A801F1
:10119000DA9469F7DF90EF90FF900F911F91CF9154
:1011A000DF91089597FB072E16F4009407D077FD82
:1011B00009D00E94080907FC05D03EF4909581955E
:1011C0009F4F0895709561957F4F0895A1E21A2E63
:1011D000AA1BBB1BFD010DC0AA1FBB1FEE1FFF1FDB
:1011E000A217B307E407F50720F0A21BB30BE40B2B
:1011F000F50B661F771F881F991F1A9469F7609572
:101200007095809590959B01AC01BD01CF0108952B
:10121000AA1BBB1B51E107C0AA1FBB1FA617B7071C
:1012200010F0A61BB70B881F991F5A95A9F7809538
:101230009095BC01CD010895EE0FFF1F0590F4912C
:08124000E02D0994F894FFCFA2
:10124800000000004B03C500AA01A901313955452A
:101258004331363100444C2050524F4A45435420C4
:10126800303200576176653A202020202020202047
:101278002020200020202020206B487A20202020B9
:1012880020202020006E616E00696E66006F766611
:101298000020547269616E676C65202000205361DC
:1012A8007720202020202020002053696E652020F0
:1012B8002020202000202020202020202020202046
:0412C80020200000E2
:00000001FF
